:020000040800F2
:1000000058070020910100080B1F00087318000812
:10001000091F0008EB050008552200080000000039
:100020000000000000000000000000000F1F00089A
:10003000ED050008000000000D1F0008951F0008D6
:10004000AB010008AB010008AB010008AB010008E0
:10005000AB010008AB010008AB010008AB010008D0
:10006000AB010008AB010008AB010008AB010008C0
:10007000AB010008AB010008AB010008AB010008B0
:10008000AB010008AB010008AB010008AB010008A0
:10009000AB010008AB010008AB010008AB01000890
:1000A000AB010008AB010008AB010008AB01000880
:1000B000AB010008AB010008AB010008AB01000870
:1000C000AB010008AB010008AB010008AB01000860
:1000D000AB01000849220008AB010008AB01000891
:1000E000AB010008AB010008AB01000800F002F80A
:1000F00000F03FF80AA090E8000C82448344AAF183
:100100000107DA4501D100F034F8AFF2090EBAE880
:100110000F0013F0010F18BFFB1A43F0010318473B
:100120006024000080240000103A24BF78C878C101
:10013000FAD8520724BF30C830C144BF04680C60ED
:10014000704700000023002400250026103A28BF35
:1001500078C1FBD8520728BF30C148BF0B60704739
:10016000642900F07180002070471FB51FBD10B5D5
:1001700010BD00F000FA1146FFF7F7FF02F026F974
:1001800000F01EFA03B4FFF7F2FF03BC00F026FAFA
:100190000948804709480047FEE7FEE7FEE7FEE71B
:1001A000FEE7FEE7FEE7FEE7FEE7FEE70448054957
:1001B000054A064B70470000F71F0008ED000008D5
:1001C0005801002058070020580300205803002041
:1001D0000FB41CB5074B06AA7B44694600900598EE
:1001E00000F0B1F90020694600F0C0F91CBC5DF8D0
:1001F00014FB00009103000070B504468569006897
:10020000C10601D5302600E02026C00707D070BD0A
:10021000D4E9012130469047206A401C20626D1EBF
:10022000F6D570BD70B5044685690078C00707D162
:1002300070BDD4E9012120209047206A401C206233
:100240006D1EF6D570BD00002DE9F0410646002474
:1002500010687529314616A510D0AFF3008000282C
:1002600002DA404213A507E031688A0701D512A5DA
:1002700002E0490704D511A5012401E0AFF3008095
:1002800000210A2206F1240709E0B0FBF2FCB0FBD2
:10029000F2F302FB1C00303078541846491C002849
:1002A000F3D123462A463046BDE8F04100F0EDB8D0
:1002B000000000002D0000002B00000020000000C6
:1002C0002DE9F05F894604464FF0000ADFF824B1BB
:1002D000FB44C0F820A02046E168884700287DD074
:1002E000252806D0D4E901219047206A401C2062CD
:1002F000F1E700255F462046E1688847202806464A
:1003000007DB312E05D2B81910F8200C08B10543CF
:10031000F1E7A80701D525F00405C4F81CA00027C3
:10032000C4F818A02A2E09D0304601F0A4FF38B333
:1003300004EB8708303EC8F8186019E059F8041B30
:10034000204604EB87029161E1688847012F064649
:1003500018D1E069002820DA25F020051DE0D8F842
:10036000180000EB800006EB40003038C8F8180099
:100370002046E1688847064601F07DFF0028EED15F
:10038000012F0AD02E2E08D12046E16888477F1C15
:100390000646022F45F02005C4DBA069002803DAD9
:1003A000404245F00105A061E80701D025F01005A5
:1003B000A6B1A6F14100192802D8203645F40065FF
:1003C0004A463146204625604D46FFF7C9FE60B1DA
:1003D000012807D0ED1D25F0070000E007E000F13F
:1003E000080978E705F1040975E730467AE7206ADD
:1003F000BDE8F09F9A22000010B5431C02E010F8FF
:10040000011B71B18107FAD14FF0013202C88C1A79
:100410008C4314EAC211F9D0C01A0A0603D0C01ED8
:1004200010BDC01A10BD0A0401D0801E10BD090203
:10043000FCD0401E10BD4FF0000200B5134694469C
:100440009646203922BFA0E80C50A0E80C50B1F12C
:100450002001BFF4F7AF090728BFA0E80C5048BF40
:100460000CC05DF804EB890028BF40F8042B08BFDE
:10047000704748BF20F8022B11F0804F18BF00F8DA
:10048000012B70477047704770472DE9F0470D46C4
:1004900099469246044600F124080168880604D56E
:1004A000E06921F01001216000E00120A84201DD97
:1004B000471B00E00027A1697A1902EB0900081A1E
:1004C000A0612078C00602D42046FFF795FE0026E2
:1004D00008E0D4E901211AF806009047206A401C80
:1004E000761C20624E45F4DB2078C0060AD52046F3
:1004F000FFF782FE06E0D4E9012130209047206A10
:10050000401C2062381EA7F10107F4DC07E0D4E9A3
:10051000012118F805009047206A401C2062281E1F
:10052000A5F10105F3DC2046FFF77CFE20780006EC
:1005300002D50220BDE8F0870120FBE701694A1CD3
:1005400002610878704700B58FB0CDE90131002114
:10055000059105497944CDE9031011466846FFF736
:10056000AFFE0FB000BD0000E5FFFFFF0A6802F814
:10057000010B0A607047754600F02CF8AE46050086
:100580006946534620F00700854618B020B5FFF7AE
:100590000DFEBDE820404FF000064FF000074FF081
:1005A00000084FF0000B21F00701AC46ACE8C00991
:1005B000ACE8C009ACE8C009ACE8C0098D4670479A
:1005C00010B50446AFF300802046BDE81040FFF7A9
:1005D000D9BD000000487047F800002001491820EC
:1005E000ABBEFEE7260002007047FEE7704772B61A
:1005F000FEE710B590F821100022022905D0042151
:10060000816380F82020012010BD01680B6823F071
:100610000E030B6001680B6823F001030B6090F878
:100620004030C46B012101FA03F3636080F82110AC
:1006300080F82020104610BD10B590F8211000243D
:10064000022903D00421816301243DE001680A6886
:1006500022F00E020A6001680A6822F001020A60B4
:100660001A4A0168914201D1012121E0174A14324E
:10067000914201D110211BE0144A2832914201D14C
:10068000891515E0114A3C32914201D189140FE0DD
:100690000E4A5032914202D14FF4803108E00B4AA9
:1006A0006432914202D14FF4801101E04FF0807129
:1006B000064A083A5160012180F82110002180F893
:1006C0002010416B01B18847204610BD0800024050
:1006D00070B5044600F004F90546601C02D00448D9
:1006E0000078044400F0FCF8401BA042FAD370BD2F
:1006F000180000202DE9F84FDFF8B8910024A9F187
:10070000040B23460F2709F1040AABF1040EC9E0DC
:100710000125A5402A40AA427DD1674ED1F804C0E8
:10072000ACEB0608B44532D014DCBCF1030F3AD070
:1007300009DCBCF1000F2AD0BCF1010F1CD0BCF1C8
:10074000020F31D11DE0BCF1110F17D0BCF1120F17
:100750002AD119E0B8F5881F19D006DCB8F5803F1A
:1007600015D0B8F5801F1FD111E0B8F5001F0ED0CD
:10077000B8F5041F18D10AE0CB6815E0CB681B1D43
:1007800012E0CB6808330FE0CB680C330CE08B68C9
:100790002BB1012B4FF0080303D0456104E0042383
:1007A00002E0056100E00023FF2A01D8064601E0CF
:1007B00000F104064FEA840501D9A5F12005D6F819
:1007C000008007FA05FC28EA0C0803FA05F548EA58
:1007D0000508C6F800804D68ED0062D5374DAE695A
:1007E00046F00106AE61AD6924F0030605F001058F
:1007F0000095334D06EB050CDCF80850A607360FC4
:1008000007FA06F825EA0805DFF8B880404503D165
:100810004FF0000817E044E0DFF8AC80404502D11B
:100820004FF001080FE0DFF8A480404502D14FF0FF
:10083000020808E0DFF89880404502D14FF0030835
:1008400001E04FF0040808FA06F848EA0508CCF879
:1008500008804D68D9F80060ED024D4601D5164379
:1008600000E096432E604D68DAF80060AD02554610
:1008700001D5164300E096432E604D68DBF800601A
:10088000AD035D4601D5164300E096432E604D68EA
:10089000DEF80060ED03754601D5164300E096438F
:1008A0002E60641C0D682A46E5407FF431AFBDE838
:1008B000F88F0000080401400000111000100240F1
:1008C0000000014000080140000C01400010014000
:1008D000001401400AB1016170470904FBE7000000
:1008E00001488068704700001800002070B50400BF
:1008F00025D094F83D00002520B984F83C502046CE
:1009000000F078FA242084F83D002068016821F086
:10091000010101602068016841F400410160206824
:10092000016821F40041016000F0C0FB4D4A61689C
:10093000914201D84C4900E04C49884201D2012043
:1009400070BD4B492368B0FBF1F15E6826F03F06AD
:100950000E435E606368934206D94FF49673594321
:100960004FF47A73B1FBF3F12368491C1E6A26F039
:100970003F06314319626168914210D84900401E18
:10098000B0FBF1F2521CC2F30B02042A01D2042084
:1009900022E0B0FBF1F0401CC0F30B001CE0A268A9
:1009A000F2B301EBC10303EB0116431EB3FBF6F3F5
:1009B0005B1C43F480431B0549D092B301EBC10299
:1009C00002EB0111401EB0FBF1F0401CC0F30B0024
:1009D00040F4804040F400402168CA694CF6FF733F
:1009E0009A431043C861D4E90710014320680268A4
:1009F00022F0C00211430160D4E9030101432068E1
:100A0000826848F2FF339A4311438160D4E90501BB
:100A100008432168CA6822F0FF021043C86001E061
:100A20000EE016E02068016841F0010101602564D4
:100A3000202084F83D00256384F83E50002070BDDE
:100A400001EB4106431EB3FBF6F35B1CB3E7012049
:100A5000C2E701EB4101401EB0FBF1F0401CC0F3C6
:100A60000B00B7E7A086010080841E0000093D004E
:100A700040420F002DE9FF4F83B00025DDE91079DA
:100A80009A4693460446DDF848800095FFF728FF14
:100A9000064694F83D0020287CD11923012285497F
:100AA0002046009600F0FCFF0028F5D194F83C00A9
:100AB00001286FD0012084F83C0020680168C90734
:100AC00003D1016841F0010101602068016821F44F
:100AD00000610160222084F83D00402084F83E003F
:100AE00025646762A4F82A90608D20857248E062D0
:100AF000CDE9008653465A462046049900F0D2FEBE
:100B000000287DD1208DDFF8B491202768B101281D
:100B100014D00228206801681ED041F48061016071
:100B20002068416980690090B6E020684169816968
:100B30000091016841F400710160ADE02068016836
:100B400021F48061016072B6206841698169009179
:100B5000016841F400710AE041F40061016072B67D
:100B60002068416981690091016821F48061016018
:100B700062B691E0032868D801280CD002284346C9
:100B80004FF000024946204600960FD000F088FF43
:100B9000B0BB10E08BE032464146204601F026F81B
:100BA00070BB20680069616A08706CE000F078FF33
:100BB00030BB72B634E02068016821F480610160C6
:100BC00072B620680069616A0870606A401C6062E1
:100BD000208D401E2085608D401E6085384846F27D
:100BE000A8110068B0FBF1F0C0EBC00000EB800082
:100BF0000090401E009008D020684069C04300E08B
:100C000029E040070CD50098F3E744F8305F67739C
:100C1000A573206940F02000206162B625731AE0B8
:100C20002068016841F40071016020680069616A10
:100C30000870606A401C6062218D491E2185618DAB
:100C4000491E618562B621681BE032464146204656
:100C500000F0CCFF18B1012007B0BDE8F08F20688C
:100C60000069616A0870606A401C6062218D491EDB
:100C70002185618D491E618521684A69D2435207E9
:100C80000AD409690170606A401C6062208D401EB0
:100C90002085608D401E6085208D00287FF46AAF1E
:100CA00084F83D7084F83E5084F83C50D4E702202C
:100CB000D2E70000020010000000FFFF0400010066
:100CC000240000202DE9FF4F83B09A46DDE91197FB
:100CD00093460446DDF84080FFF702FE054694F88F
:100CE0003D0020287FD1192301224049204600954C
:100CF00000F0D6FE002876D194F83C00012872D08E
:100D0000012084F83C0020680168C90703D101680C
:100D100041F0010101602068016821F40061016077
:100D2000212084F83D00402084F83E0000262664FF
:100D3000C4F82480A4F82A90608D20852C48E062B5
:100D4000CDE9007553465A462046049900F028FE26
:100D500070B930E02A463946204600F07FFF58B18E
:100D6000206C042804D12068016841F400710160FE
:100D7000012007B0BDE8F08F606A21680078086143
:100D8000606A401C6062218D491E89B22185628D96
:100D9000521E628522685369DB435B070BD469B13D
:100DA00000781061606A401C6062208D401E2085C2
:100DB000608D401E6085208D0028CBD12A463946A3
:100DC000204600F041FE0028CAD154F83D0B0168CE
:100DD00041F400710160202004F81E09E67766776F
:100DE0000020C6E7FFE70220C3E700000200100072
:100DF0000000FFFF10B586B0002100910191029123
:100E0000039100680F4988421AD10F4CA06940F045
:100E10000800A061A069694600F008000490C020A5
:100E2000009012200190032003900848FFF762FC15
:100E3000E06940F40010E061E06900F40010049003
:100E400006B010BD0054004000100240000C0140EC
:100E500002488168027811448160704718000020C0
:100E6000074810B5016841F010010160032000F04F
:100E700075F80F2000F006F800F024F8002010BDEF
:100E80000020024070B50D4D04464FF47A71287869
:100E9000B1FBF0F00A490968B1FBF0F000F0DCFAB0
:100EA00048B9102C07D200222146501E00F036F817
:100EB00000206C6070BD012070BD00001800002093
:100EC000240000200C4808B5816941F001018161CE
:100ED000816901F001010091C16941F08051C16156
:100EE000C06900F0805000900448416821F0E06142
:100EF00041F00071416008BD001002400000014057
:100F0000002809DB00F01F02012191404009800008
:100F100000F1E020C0F8001170470000F0B40E4B63
:100F20001B680C46C3F30223C3F10705042D00D947
:100F30000425191D072901D2002300E0DB1E01262C
:100F400006FA05F1491E214099409E40761E164042
:100F50003143F0BC01F07FB90CED00E0064900F030
:100F6000070208684FF6FF03184040EA0220034AD0
:100F700010430860704700000CED00E00000FA0527
:100F80002DE9F0470F46050061D0434E306800F070
:100F90000700B84209D2306820F0070038433060BB
:100FA000306800F00700B84251D128683B4C8107F7
:100FB00012D5400703D5606840F4E060606028788F
:100FC000000703D5606840F4605060606068A968FD
:100FD00020F0F000084360602878C00728D06868D7
:100FE000012810D02168022810D0890700292EDAA4
:100FF000616821F0030101436160FFF771FC8046E5
:1010000041F288390DE021688903EFE78901EDE7B6
:10101000FFF766FCA0EB0801494502D90320BDE8B3
:10102000F0876068696800F00C00B0EB810FEFD1C9
:10103000306800F00700B8420BD9306820F0070094
:1010400038433060306800F00700B84201D001201A
:10105000E5E72878400705D56068E96820F4E06096
:10106000084360602878000706D56068296920F485
:10107000605040EAC100606000F038F86168084ADA
:10108000C1F30311515CC840064908600648006876
:10109000FFF7F8FE0020C2E70020024000100240E7
:1010A00056250008240000201C00002004480549A3
:1010B00000684968044AC1F30221515CC840704786
:1010C000240000200010024066250008044805495D
:1010D00000684968044AC1F3C221515CC8407047A6
:1010E0002400002000100240662500080E4A5168C6
:1010F0000E4801F00C03042B11D0082B0FD10C4823
:10110000C1F38343C903C05C0AD55168084AC1F3DF
:101110004041921E515C054A5043B0FBF1F07047CC
:1011200004494843704700000010024000127A0052
:101130004625000800093D002DE9F84F040070D055
:101140002078C04DC00749D06868C0F381000128ED
:1011500007D06868C0F38100022809D16868C0031D
:1011600006D52868800339D560680028E7D035E0C7
:101170006068B0F5803F0BD010B1B0F5A02F11D052
:10118000286820F480302860286820F4802002E05D
:10119000286840F480302860606890B1FFF7A0FBB9
:1011A00006460AE0286840F480202860F0E700BF87
:1011B000FFF796FB801B642873D828688003F7D557
:1011C0000CE0FFF78DFB064605E000BFFFF788FB4C
:1011D000801B6428F0D828688003F7D420789A4EC2
:1011E00080074FF001094FF0000839D5686810F00A
:1011F0000C0F07D06868C0F38100022809D1686825
:10120000C00306D42868800714D52069012808D1B6
:1012100010E02069B0B1C6F80090FFF761FB074607
:1012200005E00AE1FFF75CFBC01B0228C4D8286870
:101230008007F7D52868616920F0F80040EAC1000E
:1012400028600DE0C6F80080FFF74AFB074604E07F
:10125000FFF746FBC01B022823D828688007F7D475
:10126000207800072CD57948A169D9B1C0F8009041
:10127000FFF736FB074604E0FFF732FBC01B0228EE
:101280000FD8686A8007F7D571484FF4FA510068A3
:10129000B0FBF1F0009000BF0098411E0091FAD21F
:1012A0000EE080E0C0F80080FFF71AFB074604E07C
:1012B000FFF716FBC01B022875D8686A8007F7D4B1
:1012C0002078400760D5E8690027C00008D4E869A5
:1012D00040F08050E861E869012700F080500090FC
:1012E0005C480168C90513D40168834641F48071E4
:1012F0000160FFF7F5FA824606E000BFFFF7F0FA5B
:10130000A0EB0A0064284ED8DBF80000C005F5D534
:10131000E06801280AD008B1052813D0286A20F017
:1013200001002862286A20F0040002E0286A40F0E8
:1013300001002862E06841F2883B98B1FFF7D0FADB
:1013400082460BE0286A40F004002862EEE700BF06
:10135000FFF7C6FAA0EB0A0159455AD8286A800758
:10136000F6D50CE0FFF7BCFA824605E0FFF7B8FAC5
:10137000A0EB0A0159454CD8286A8007F6D41FB162
:10138000E86920F08050E861E06988B36968C1F3DA
:101390008101022944D00228C6F8608004D0FFF7FA
:1013A0009FFA044638E034E0FFF79AFA074604E073
:1013B000FFF796FAC01B02282BD828688001F7D4C3
:1013C000206AB0F5803F05D16868A16820F400303C
:1013D00008436860D4E908010843696821F474117E
:1013E00008436860C6F86090FFF77AFA044606E0A2
:1013F00025E000BFFFF774FA001B022809D828680F
:101400008001F7D51BE000BFFFF76AFA001B022836
:1014100002D90320BDE8F88F28688001F4D40EE0DB
:101420000128F7D06868226A00F48031914204D123
:10143000616A00F47010884201D00120EAE70020C0
:10144000E8E70000001002400000424280044242EF
:10145000240000200070004010B5401EB0F1807FD5
:1014600001D3012010BD4FF0E02460610F2160170F
:1014700000F0F1FE0020A06107202061002010BDD7
:1014800070477047F8B5016804460868CA684B6938
:1014900010F00F0F4FF0000559D003F0010602F4D1
:1014A0009077374365D0C10705D0D10503D5616C6E
:1014B00041F001016164410705D5D90703D0616C92
:1014C00041F002016164810705D5D90703D0616C41
:1014D00041F004016164010707D502F020013143A6
:1014E00003D0616C41F008016164616C00293AD05D
:1014F000800604D5900602D5204600F0ACFD206899
:101500004069616CC0F38010090700D460B32046C5
:1015100000F07AFD20684069400621D5206814302B
:1015200050E8001F21F0400140E80012002AF5D1E8
:10153000E06BA8B16D494163E06BFFF77DF80028CF
:1015400011D0E06B416B01B0BDE8F0400847830665
:101550000FD593060DD52046BDE8F84000F07BBDC1
:101560002046FFF78EFFF8BD2046FFF78AFF65642F
:10157000F8BD266B2023012E7CD1C6067AD5D6066F
:1015800078D508684868009048694FF00206400620
:1015900040D5E16B086840680004000CE8D0A28DDB
:1015A0008242E5D9E085886920282DD020680C305A
:1015B00050E8001F21F4807140E80012002AF5D1A4
:1015C0002068143050E8001F21F0010140E80012AB
:1015D000002AF5D12068143050E8001F21F04001A6
:1015E00040E80012002AF5D184F8423025632068D3
:1015F0000C3050E8001F21F0100140E80012002AD2
:10160000F5D1E06BFEF7F5FF6663A08DE18D401A22
:1016100081B22AE0A08DE18D401A81B2E08D0028D0
:10162000A6D00029A4D022680C3252E8000F20F482
:10163000907042E80007002FF5D12068143050E880
:10164000002F22F0010240E80027002FF5D184F896
:101650004230256320680C3050E8002F22F0100241
:1016600040E80023002BF5D166632046FFF708FF12
:10167000F8BDFFE705062BD5150629D594F84100DE
:101680002128F5D1A068B0F5805F01D12069B0B103
:10169000206A411C2162216800784860E08C401E6D
:1016A0000004000CE084E3D12068C16821F08001CF
:1016B000C1602068C16841F04001C160D8E7206A7C
:1016C0000088C0F308004860206A801C2062E5E7BB
:1016D0004006CDD55006CBD5CA68204622F0400240
:1016E000CA6084F8413000F0C3F8C1E7F91F000870
:1016F00070B5040004D094F84100002510B106E054
:10170000012070BD84F84050204600F023F82420CA
:1017100084F841002068C16821F40051C16020466E
:1017200000F0FAFC2068016921F490410161206811
:10173000416921F02A0141612068C16841F40051EA
:10174000C1606564202084F8410084F8420065632C
:10175000002070BD30B585B000240094019402943F
:1017600003940068184988422CD11848816941F4D3
:1017700080418161816901F480410491816941F076
:10178000040181618069124D00F0040004904FF45F
:1017900000700090022001900320039069462846C3
:1017A000FEF7A8FF2815CDE90004694628460294F3
:1017B000FEF7A0FF002211462520FFF7AFFB2520F2
:1017C000FFF79EFB05B030BD00380140001002401D
:1017D0000008014070472DE9F843044690F84100A5
:1017E0001F4616460D46202802D00220BDE8F88389
:1017F0007DB176B100206064212084F84100FFF7BC
:101800006FF8A6848046E684A068B0F5805F02D0B9
:1018100003E00120EAE7206910B12E4600250EE022
:1018200000260CE08021204600F0D2FCA0B9AEB129
:1018300016F8010B21684860E08C401EE084E08CC3
:1018400043464FF0000200970028EBD14FF04001D3
:10185000204600F0BDFC30B10320C7E735F8020B8D
:10186000C0F30800E6E7202084F841000020BDE72F
:101870007047FEE701684A69D24352050FD46FF4FE
:1018800080624A61002140F8301F20224273817338
:10189000026942F0040202610173012070470020D6
:1018A000704700002DE9F84F0446006889460B9DFB
:1018B00001689846174641F480610160206801681C
:1018C00041F48071016000954FF0011B00225946E0
:1018D00020460A9B00F0E4F84FF4007A40B12068FB
:1018E0000068C00501D5C4F840A00320BDE8F88F0A
:1018F000216809F0FE0008612B46284920460A9A13
:1019000000F016F9F0BB20684169806900902A4612
:1019100020460A9900F0A2F940B1206C04283AD17F
:101920002068016841F40071016034E0FEB2B8F152
:10193000010F09D02168380A08612A4620460A9911
:1019400000F08CF90028E8D1206806612A4620467C
:101950000A9900F083F90028DFD12068016841F47A
:101960008071016000950022594620460A9B00F0D4
:1019700097F80028B3D1216809F0FF0040F001007A
:10198000086100E007E02B46044920460A9A00F06F
:10199000CFF80028AAD00120A8E70000020001002B
:1019A0002DE9F843044600680D46DDE90897016813
:1019B0009846164641F4807101604B4600224FF074
:1019C00001112046009700F06BF848B120680068CC
:1019D000C00502D54FF4007020640320BDE8F883F1
:1019E000216805F0FE0008613B464A46154920463D
:1019F00000F09EF888B920684169806900903A46F5
:101A00004946204600F02AF948B1206C042804D148
:101A10002068016841F4007101600120DEE7F5B241
:101A2000B8F1010F09D02168300A08613A464946E9
:101A3000204600F013F90028E7D120680561002056
:101A4000CCE700000200010070B516460D460446C2
:101A50001EE02046FFF70EFF08B1012070BD681C94
:101A600016D0FEF73DFF801BA84200D885B920683C
:101A70004069C04340070BD5002044F8300F2021B7
:101A80006173A073216941F0200121612073E4E7B3
:101A900020684069C0434007DBD4002070BD0000CF
:101AA0002DE9F047984617460D460446C1F3074610
:101AB000DDF820902AE000BFB8F1FF3F26D0FEF706
:101AC0000FFFA0EB0901414502D8B8F1000F1DD16D
:101AD0002068012E16D0806925EA00000004000C61
:101AE00012D00020B84211D1002044F8300F20213C
:101AF0006173A073216941F02001216120730120ED
:101B0000BDE8F0874069E7E70120EBE72068012E98
:101B10000AD0806925EA00000004000C06D00020ED
:101B2000B842C9D00020EBE74069F3E70120F7E7AE
:101B30002DE9F047984616460D4604464FF0000939
:101B40004FF0200AC1F3074723E020684069C043F3
:101B5000400515D42068016841F4007101602168D6
:101B60006FF480604861C4F8309084F83DA084F838
:101B70003E90216C41F00401216484F83C9021E006
:101B8000701C06D0FEF7ACFEA0EB0800B04203D8F4
:101B900016B1012F1FD021E02068012F15D08069D8
:101BA00025EA00000004000C18D000BF44F8309F64
:101BB00084F80DA084F80E90216941F02001216184
:101BC00084F80C900120BDE8F087406925EA000008
:101BD0000004000CEAD12068406901E020688069B7
:101BE00025EA00000004000CAFD1ECE72DE9F0413C
:101BF000002590460E460446202728E04069C04351
:101C0000C0060CD454F8301B6FF01000486144F843
:101C100010596777A577206A2062257714E0FEF7D0
:101C20005FFEA0EB0800B04200D886B9206840698A
:101C3000C04340060BD544F8305F6773A573206935
:101C400040F02000206125730120BDE8F08120686C
:101C50004169C9434906D1D40020F6E770B516465C
:101C60000D4604461EE02046FFF704FE08B10120A1
:101C700070BD681C16D0FEF733FE801BA84200D84A
:101C800085B920684069C04300060BD5002044F8A0
:101C9000300F20216173A073216941F0200121617F
:101CA0002073E4E720684069C0430006DBD40020CD
:101CB00070BD10B500F014F8332000F05FFB322047
:101CC00000F05CFB282000F059FB012000F056FBDF
:101CD0000C2000F053FBBDE81040062000F04EBB86
:101CE000F0B585B0314800240294816941F00401C7
:101CF0008161816901F004010491816941F0080169
:101D00008161816901F008010491816941F010014C
:101D100081618069012500F0100004900220CDE966
:101D20000005234F0326694603963846FEF7E2FC7A
:101D30000820CDE90005CDE9024669463846FEF7A0
:101D4000D9FC0420CDE90005CDE9024669463846B4
:101D5000FEF7D0FC002204213846FEF7BBFD102020
:101D6000CDE90005CDE9024669463846FEF7C2FCDA
:101D70002020CDE90005CDE9024669463846FEF748
:101D8000B9FC4020CDE90005CDE902466946384658
:101D9000FEF7B0FC8020CDE90005CDE9024669469A
:101DA0003846FEF7A7FC05B0F0BD00000010024069
:101DB0000008014031B14030C0B240F0800000BFA7
:101DC00000F0DCBA40F08000FAE770B50546002468
:101DD00004E0285D00F0E6FA641CE4B22846FEF751
:101DE0000BFBA042F5D870BD2DE9F04186B0002470
:101DF00024480094019402940394816941F01001F5
:101E00008161816901F010010491816941F0200133
:101E10008161816901F020010491816941F004012F
:101E20008161816901F004010491816941F0080137
:101E300081618069144F00F008004FF40055049050
:101E4000002229463846FEF745FDDFF84080002293
:101E5000FE214046FEF73EFD009502260125039631
:101E6000CDE9015469463846FEF744FCFE20CDE931
:101E70000005CDE9024669464046FEF73BFC06B048
:101E8000BDE8F08100100240001001400008014050
:101E90000D4810B50B4901600C49416000214FF419
:101EA00080428160C0E9031241618161C1610162C8
:101EB000FEF71CFD002803D0BDE81040FEF797BBDD
:101EC00010BD0000005400405C000020A08601000E
:101ED0000C4810B50A4901604FF4E131416000211E
:101EE00081600C22C160C0E904128161C161FFF709
:101EF000FFFB002803D0BDE81040FEF778BB10BD03
:101F000000380140B0000020FEE7FEE77047704750
:101F10001FB513460C4600F0BEF98DF80C002046A4
:101F200000F0B9F98DF80D00184600F0B4F98DF8FD
:101F30000E004FF0FF32032103A88DE807000123B4
:101F40000422D0210148FEF7BDFE1FBD5C00002029
:101F50001FB503460C46104600F09DF98DF80C00A5
:101F6000204600F098F98DF80D00184600F093F91E
:101F70008DF80E004FF0FF32032103A88DE8070013
:101F800001230022D0210248FEF79CFE1FBD000065
:101F90005C000020FEF75CBF30B58FB0282168469A
:101FA000FEF749FA14210AA8FEF745FA01210804B0
:101FB000CDE900100024029402250491CDE90750D8
:101FC0004FF4E01009906846FFF7B6F808B172B612
:101FD000FEE70F20CDE90A054FF48060CDE90C4003
:101FE00002210AA80E94FEF7CBFF002801D072B69A
:101FF000FEE70FB030BD704710B5406A0021C185C3
:10200000C184FFF73EFA10BD01680C3151E8002F82
:1020100022F4907241E80023002BF5D101681431BD
:1020200051E8002F22F0010241E80023002BF5D1F6
:10203000016B012909D101680C3151E8002F22F010
:10204000100241E80023002BF5D1202180F8421036
:1020500000210163704708B590F84210222901D091
:10206000022008BD82684FF480539A4201D1016971
:1020700021B1816A9A421BD04AB10AE00268816AA2
:102080005268C2F308020A80816A891C08E002696A
:1020900072B10268526802F07F020A70816A491CBC
:1020A0008162C18D491E0904090CC18503D01BE062
:1020B00002685268F1E70168CA6822F02002CA602B
:1020C0000168CA6822F48072CA6001684A6922F015
:1020D00001024A61202180F8421000214163026B15
:1020E000012A03D0FFF776FB002008BD01630168D9
:1020F0000C3151E8002F22F0100241E80023002BA0
:10210000F5D101680A68D20602D50A6849680091CB
:10211000818DFFF7B5F9E7E770B5044600680169FE
:10212000E26821F44051114301612169A06808432C
:10213000616908432168CA6841F20C639A4302430B
:10214000CA6020684169A26921F44071114341616C
:102150001E492068884202D1FEF7B8FF01E0FEF771
:10216000A5FF00EBC00101EB001260686421800054
:10217000B2FBF0F3B3FBF1F36FF018067343B2FB5D
:10218000F0F5B2FBF0F605EB8305322303EB051502
:10219000B5FBF1F5B6FBF1F605F0F00505EB06151C
:1021A000B2FBF0F6B2FBF0F0B0FBF1F06FF018020A
:1021B000504306EB800003EB0010B0FBF1F0216808
:1021C00000F00F002844886070BD00000038014016
:1021D0002DE9F041984617460E460446069D27E035
:1021E000681C25D02DB1FEF77BFBA0EB0800A842B0
:1021F0001ED920680C3050E8001F21F4D07140E84F
:102200000012002AF5D12068143050E8001F21F098
:10221000010140E80012002AF5D1202084F8410095
:1022200084F84200002084F840000320BDE8F081DB
:102230002068006836EA000004D00020B842CFD001
:102240000020F3E70120F9E70148FFF71BB9000080
:10225000B0000020FEE70907090E002804DB00F1AA
:10226000E02080F80014704700F00F0000F1E0203B
:1022700080F8141D704730380A2801D201207047B9
:102280000020704700F00F01000900EB800001EB17
:102290004000C0B270470A21B0FBF1F201FB12020C
:1022A000B0FBF1F002EB0010C0B2704700B585B092
:1022B0000B460092024606A101A8FDF789FF002106
:1022C0000846FFF777FD01A8FFF77FFD05B000BDC9
:1022D000446174653A253032642F253032642F25ED
:1022E0003032640000B585B00B460092024606A16C
:1022F00001A8FDF76DFF01210846FFF75BFD01A86E
:10230000FFF763FD05B000BD54696D653A253032B5
:10231000643A253032643A25303264002DE9F041C8
:10232000144D0F468046002405F108060EE000BF5C
:1023300028FA04F0C00735F8141056F8240017D016
:102340005FF00102FEF7C6FA641CE4B2BC42EFD3B0
:10235000094C012208212046FEF7BCFA0120FEF7B5
:10236000B7F92046BDE8F04100220821FEF7B2BAD5
:102370000022E7E7000000200008014010B50446F5
:10238000002202210648FEF7A5FA20090421FFF7E2
:10239000C5FF04F00F00BDE810400421FFF7BEBFE9
:1023A0000008014010B50446012202210648FEF74C
:1023B00091FA20090421FFF7B1FF04F00F00BDE8F6
:1023C00010400421FFF7AABF000801408AB0FEF7C1
:1023D00047FDFFF7E1FDFFF707FDFFF759FDFFF7A9
:1023E00077FDFFF766FC2548FEF780FA0A222521D3
:1023F0001620FFF7ADFD172203210B20FFF788FD04
:102400004FF0FF344FF47A7506AA05A904A800F02E
:1024100073F89DF818209DF814109DF81000FFF730
:1024200061FF09AA08A907A800F044F89DF8242034
:102430009DF820109DF81C00FFF738FF9DF8240040
:102440009DF818309DF814209DF810108DE80F00AD
:102450009DF820309DF81C2009A11448FDF7B8FE16
:102460001248FDF7C9FF82B2234610491048FFF712
:10247000B2F92846FEF72CF9C6E700005C00002000
:10248000446174653A253032642F253032642F253B
:102490003032640A2054696D653A253032643A2539
:1024A0003032643A253032640000000028000020F9
:1024B000B00000207FB514460D4606464FF0FF32AF
:1024C000032103A88DE8070001230422D021094835
:1024D000FEF7D0FA9DF80C00FFF7D4FE30709DF89F
:1024E0000D00FFF7CFFE28709DF80E00FFF7CAFE23
:1024F00020707FBD5C0000207FB514460D46064667
:102500004FF0FF32032103A88DE8070001230022CA
:10251000D0210B48FEF7AEFA9DF80C0000F07F00CA
:10252000FFF7B0FE20709DF80D00FFF7ABFE28709E
:102530009DF80E0000F03F00FFF7A4FE30707FBD55
:102540005C000020010202030405060708090A0BCB
:102550000C0D0E0F10100000000000000000010222
:102560000304060708090000000001020304040038
:102570000008000000000000000200010000100040
:10258000A025000800000020280000002801000805
:10259000C82500082800002030070000440100087A
:1025A00010002000400080000008014000080140A9
:1025B0000008014000080140010000001000000078
:0825C000000000000024F400FB
:04000005080000ED02
:00000001FF
